:020000040800F2
:100000000000022061E40008B1E40008B1E4000847
:10001000B1E40008B1E40008B1E400080000000009
:10002000000000000000000000000000B1E4000833
:10003000B1E4000800000000B1E40008B1E40008E9
:10004000B1E40008B1E40008B1E40008B1E400083C
:10005000B1E40008B1E40008B1E40008B1E400082C
:10006000B1E40008B1E4000895D60008B1E4000846
:10007000B1E40008B1E40008B1E40008B1E400080C
:10008000B1E40008B1E40008B1E40008B1E40008FC
:10009000B1E40008B1E40008B1E40008A1B8000828
:1000A000B1E40008B1E40008B1E40008B1E40008DC
:1000B000B1E40008B1E40008B1E40008B1E40008CC
:1000C000B1E40008B1E40008B1E40008B1E40008BC
:1000D000B1E40008B1E40008B1E40008B1E40008AC
:1000E00009B80008B1E4000831A90008B1E400082B
:1000F000B1E40008B1E40008B1E40008B1E400088C
:10010000B1E40008B1E40008B1E40008B1E400087B
:10011000B1E40008B1E40008B1E40008B1E400086B
:10012000B1E40008B1E40008B1E40008B1E400085B
:10013000B1E400080000000000000000B1E4000885
:10014000B1E40008B1E40008B1E400086DA90008BA
:10015000B1E40008B1E40008B1E40008B1E400082B
:10016000B1E40008B1E40008B1E40008B1E400081B
:10017000B1E40008B1E40008000000000000000045
:08018000B1E40008B1E400083D
:1001C0000348044B834202D0034B03B118477047E6
:1001D00048030020480300200000000005480649AD
:1001E0000B1AD90F01EBA301491002D0034B03B145
:1001F0001847704748030020480300200000000013
:1002000010B5064C237843B9FFF7DAFF044B13B15E
:100210000448AFF300800123237010BD4803002081
:100220000000000044E9000808B5044B1BB1044974
:100230000448AFF30080BDE80840CFE700000000AD
:100240004C03002044E900082DE9F04120F000456E
:10025000B5F1A14F0446064608DBB5F1FF4F73DC4C
:10026000002840F381806B48BDE8F0816A4B9D42D5
:1002700000F38280B5F1445F6BDB4FF0FF3721461E
:10028000204601F043FF0146804601F03FFF6349ED
:10029000054601F03BFF624901F030FE294601F0BE
:1002A00035FF604901F02AFE294601F02FFF5E4923
:1002B00001F024FE294601F029FF5C4901F01EFEF1
:1002C000294601F023FF5A4901F018FE414601F08A
:1002D0001DFF58498046284601F018FF564901F095
:1002E0000BFE294601F012FF544901F005FE294694
:1002F00001F00CFF524901F0FFFD294601F006FF15
:10030000504901F0F9FD294601F000FF0146404641
:1003100001F0F4FD214601F0F9FE7B1C014626D0D8
:10032000494D05EB8703196901F0E6FD214601F00F
:10033000E3FD014655F8270001F0DEFD002E93DABB
:1003400000F10040BDE8F081014601F0D7FDBDE8B5
:10035000F0813E4901F0D2FD4FF07E5102F092F85B
:1003600000288AD020467FE73948BDE8F081204642
:1003700001F0C2FDBDE8F08100F072F8354B9D42FE
:10038000044617DCA3F5D0039D4232DC014601F0A0
:10039000B5FD4FF07E5101F0AFFD4FF080410546B5
:1003A000204601F0ABFD0146284601F063FF00271F
:1003B000044664E7284B9D4214DC4FF07F5101F066
:1003C0009BFD4FF07F510546204601F09FFE4FF008
:1003D0007E5101F093FD0146284601F04BFF0227B4
:1003E00004464CE701461D4801F044FF032704463C
:1003F00045E74FF07E5101F07FFD4FF07E510546FD
:10040000204601F07BFD0146284601F033FF01271D
:10041000044634E7DB0FC93FFFFFDF3ED769853C69
:1004200059DA4B3D356B883D6E2EBA3D2549123E5B
:10043000ABAAAA3E21A215BD6BF16E3D95879D3DED
:10044000388EE33DCDCC4C3E60E90008CAF24971DC
:10045000DB0FC9BFFFFF973FFFFF1B40000080BFBE
:1004600020F00040704700BF38B5044600F000F9A6
:100470000E4B93F90030013305460CD0214620463F
:1004800002F00AF838B92046FFF7EAFF4FF07E5134
:1004900001F0F8FF08B9284638BD02F0B3FF212368
:1004A00003600348BDE8384000F0BABF00000020F8
:1004B00004F0000800F028BA38B5044600F0B4FA99
:1004C000114B93F90030013305460DD0204600F062
:1004D0009FFF48B10D49204601F0D4FF60B9204686
:1004E0000B4901F0B1FF08B9284638BD02F08AFF78
:1004F000222300250360F7E702F084FF2223036034
:100500004FF0FF45F0E700BF000000208071B142CE
:10051000B5F1CFC270B505460C4600F09FFB404BCD
:1005200093F90030013306461ED02146204601F0E3
:10053000B3FFC8B92946284601F0AEFF00282FD1E5
:100540000021284601F076FF80B10021204601F00D
:1005500071FF58BB204600F05BFF28B12046002108
:1005600001F072FF002840D1304670BD304600F0E7
:100570004FFFF8B10021304601F05CFF0028F3D0B6
:10058000284600F045FF0028EED0204600F040FF4E
:100590000028E9D002F036FF222303600026E3E7BB
:1005A0002046002101F046FF0028DDD04FF07E56A6
:1005B000304670BD284600F02BFF0028DAD02046D8
:1005C00000F026FF0028D5D03146304601F064FF08
:1005D000D8B902F017FF222303600021284601F05A
:1005E00033FF40B94FF0FF46BEE702F00BFF212377
:1005F00003600C4EB8E7204600F016FF214601F0DC
:1006000019FF0028EED1074EAEE702F0FBFE0021F5
:1006100021230360084601F02DFE0646A4E700BF33
:1006200000000020000080FF38B5044600F09AFE6C
:100630000E4B93F900300133054609D02146204680
:1006400001F02AFF20B92046002101F0FDFE08B983
:10065000284638BD02F0D6FE00212123036008465B
:1006600001F008FE0546284638BD00BF0000002006
:100670002DE9F04720F00045B5F17E5F044600F01B
:10068000B18000F3A780B5F17C5F06460DDAB5F1C5
:10069000485F80F2CC808C4901F030FC4FF07E51F5
:1006A00001F0F0FE002840F0C0802046FFF7D8FEA1
:1006B00001464FF07E5001F01FFC4FF07C5101F0DD
:1006C00025FD8249044601F021FD814901F016FC17
:1006D000214601F01BFD7F4901F00EFC214601F08F
:1006E00015FD7D4901F00AFC214601F00FFD7B4913
:1006F00001F002FC214601F009FD794901F0FEFB01
:10070000214601F003FD77498046204601F0FEFCBA
:10071000754901F0F1FB214601F0F8FC734901F045
:10072000EDFB214601F0F2FC714901F0E5FB2146A9
:1007300001F0ECFC4FF07E5101F0E0FB81462046D9
:1007400000F010FE6B4B9D42074659DC014601F05C
:10075000D5FB49468246404601F08CFD0146504695
:1007600001F0D4FC27F47F6525F00F05804629466B
:10077000284601F0CBFC0146204601F0BDFB29468E
:100780000446384601F0BAFB0146204601F072FDEE
:10079000014601F0B3FB0146574801F0ADFB0146AD
:1007A000404601F0A9FB29460446284601F0A6FB75
:1007B0000146524801F0A0FB0146204601F09CFB97
:1007C00001464E4801F098FB002E09DC00F1004084
:1007D000BDE8F087014601F08FFB014601F04AFDBC
:1007E000BDE8F087464901F091FC434905462046A3
:1007F00001F08CFC0146284601F080FBBDE8F08743
:100800004946404601F036FD394601F07FFC394645
:1008100001F074FB014601F071FB3A4901F06EFBF7
:100820000146374801F068FBCEE72046D8E701468D
:1008300001F06CFC2549054601F068FC244901F0F3
:100840005DFB294601F062FC224901F055FB294677
:1008500001F05CFC204901F051FB294601F056FCF7
:100860001E4901F049FB294601F050FC1C4901F0EA
:1008700045FB294601F04AFC1A490646284601F084
:1008800045FC194901F038FB294601F03FFC1749A6
:1008900001F034FB294601F039FC154901F02CFB2D
:1008A000294601F033FC4FF07E5101F027FB014651
:1008B000304601F0DFFC214601F028FC214601F022
:1008C0001DFBBDE8F08700BFCAF2497108EF11387F
:1008D000047F4F3A4611243DA80A4E3E90B0A63EF2
:1008E000ABAA2A3E2EC69D3D6133303F2D570140B5
:1008F00039D119409999793F2EBD3BB3DB0F493F60
:10090000DB0FC93F2EBD3B33F8B50D4621F000414A
:10091000B1F1FF4F034614DC20F00046B6F1FF4F63
:1009200007460EDCB5F17E5F3ED0AC1704F0020442
:1009300044EAD07456B9022C29D0032C00D1314896
:10094000F8BD1946284601F0D9FAF8BDD9B1B1F180
:10095000FF4F1ED0B6F1FF4F15D0711AC9153C29B3
:1009600026DC002D30DA3C312EDA0020012C3CD080
:10097000022C32D0002CE3D0234901F0BFFA2349E6
:1009800001F0BAFAF8BD002F1CDB2148F8BD1F4862
:10099000F8BDB6F1FF4F0DD0022CF8D0032CCED00D
:1009A000012C25D00020F8BDBDE8F840FFF74CBC75
:1009B0001748DBE7022C22D0032C1ED0012C1AD0C2
:1009C0001448F8BD1448F8BD2946184601F052FCF9
:1009D000FFF746FDFFF738FCC8E70B4901F08EFA38
:1009E00001460A4801F088FAF8BD00F10040F8BD60
:1009F0004FF00040F8BD0948F8BD0948F8BD094866
:100A0000F8BD00BFDB0F49C02EBDBB33DB0F494033
:100A1000DB0FC93FDB0F493FDB0FC9BFDB0F49BF0E
:100A2000E4CB16C0E4CB164020F00042B2F1FF4FF9
:100A30002DE9F04704466AD84FEAD07500F0C2802D
:100A40007849884268DC0028C0F2B580764B9A422B
:100A500068D9764B9A4200F2C080754E204656F80F
:100A6000251001F049FA06EB85060746D6F80880FE
:100A7000C5F10100451B4146384601F03DFA0146EB
:100A8000044601F043FB6B49064601F03FFB6A490F
:100A900001F032FA314601F039FB684901F02EFAD3
:100AA000314601F033FB664901F026FA314601F088
:100AB0002DFB644901F022FA314601F027FB014683
:100AC000204601F019FA06460146204601F01EFBB9
:100AD000B1468246002D57D031464FF0804001F09C
:100AE0000BFA0146504601F0C5FB0146404601F0B5
:100AF00003FA394601F000FA01464FF07E5001F04A
:100B0000FBF915F17D0F60DB00EBC55002E00146FB
:100B100001F0F4F9BDE8F0874B49084601F0F6FA18
:100B2000BDE8F087B2F1465F09D24749204601F09F
:100B3000E5F94FF07E5101F0A5FC00286BD121466C
:100B4000204601F0E3FA3B49054601F0DFFA3A4955
:100B500001F0D2F9294601F0D9FA384901F0CEF96D
:100B6000294601F0D3FA364901F0C6F9294601F0C9
:100B7000CDFA344901F0C2F9294601F0C7FA01461D
:100B8000204601F0B9F981464946204601F0BEFAF7
:100B90004FF080410546484601F0AEF9014628462F
:100BA00001F068FB214601F0A7F901464FF07E50A5
:100BB00001F0A2F9AEE7254B9A427FF647AF00203D
:100BC000BDE8F087002DFAD1A4E7643500EBC550ED
:100BD0004FF0586101F09AFA9CE71D49204601F058
:100BE00095FA134B03EB8505296901F087F901F0AC
:100BF00069FC054601F036FA1649064601F086FA08
:100C00000146204601F078F913490746304601F0C5
:100C10007DFA80462FE720464FF07E5101F06EF9B5
:100C200078E700BF1772B1421872B13E9115853F47
:100C300080E900084CBB31330EEADD3555B38A3804
:100C4000610B363BABAA2A3ECAF24971B5F1CF42DD
:100C50003BAAB83F8071313FD1F717372DE9F04FEC
:100C600031F0004B87B011D020F00049B9F1FF4FAF
:100C7000824605DDC04807B0BDE8F04F00F0D0BBAC
:100C8000BBF1FF4F07DDB9F17E5FF3D14FF07E502E
:100C900007B0BDE8F08F00280C46C0F22E81002579
:100CA000BBF1FF4F00F03C81BBF17E5F80460E46FA
:100CB00000F08281B4F1804F00F09181B4F17C5F4B
:100CC00040F03981BAF1000F80F28D81FFF7C8FB47
:100CD000B9F1FF4F00F04381B9F1000F00F03B8103
:100CE000B9F17E5F00F030814FEADA77013F55EAD3
:100CF000070300F07D81BBF19A4F40F381819F4B48
:100D0000994540F3EA829E4B994500F35E814FF08E
:100D10007E5101F0F1F89B49804601F0F7F99A49BC
:100D20008146404601F0F2F94FF07A518246404642
:100D300001F0ECF90146954801F0DEF8414601F07A
:100D4000E5F901464FF07C5001F0D6F84146834664
:100D5000404601F0DBF90146584601F0D7F98C49CD
:100D600001F0D4F90146504601F0C6F8014680462C
:100D7000484601F0C3F820F47F6B2BF00F0B494677
:100D8000584601F0B9F80146404601F0B5F824F4A0
:100D90007F6424F00F04013D55EA07038046214695
:100DA00030460CBF7B4F4FF07E5701F0A5F85946F7
:100DB00001F0ACF931460546404601F0A7F901467D
:100DC000284601F09BF821460646584601F09EF958
:100DD00080460146304601F091F8002881460446DD
:100DE00020F00045C24640F32382B5F1864F00F360
:100DF0006C8200F05B82B5F17C5F00F327820025F6
:100E0000A94624F47F6424F00F042046624901F0CF
:100E10007DF951468046204601F06EF80146304685
:100E200001F06AF85D4901F071F95D490646204616
:100E300001F06CF90146304601F060F806460146C3
:100E4000404601F05BF84146044601F055F8014682
:100E5000304601F051F821468046204601F056F90F
:100E60005049064601F052F94F4901F045F8314624
:100E700001F04CF94D4901F041F8314601F046F9D5
:100E80004B4901F039F8314601F040F9494901F088
:100E900035F8314601F03AF90146204601F02CF8C8
:100EA00006460146204601F031F94FF08041824666
:100EB000304601F021F80146504601F0DBF9414689
:100EC0000646204601F022F9414601F017F8014696
:100ED000304601F011F8214601F00EF801464FF0BE
:100EE0007E5001F009F84319B3F5000FC0F23082CB
:100EF0001846394601F00AF9CAE6BBF1974F18DAED
:100F0000BBF17E5F0ADB4FEAEB53C3F196034BFA6A
:100F100003F202FA03F35B4500F085810025C3E686
:100F2000B9F17E5F3FF4B2AE54DD002C50DB0846D1
:100F3000AEE60225B4E6FFF793FAB9F1FF4F03D00E
:100F4000B9F1000F7FF4CCAE002C04DA01464FF06B
:100F50007E5001F08FF9BAF1000FBFF699AEA9F1FA
:100F60007E5959EA050340F05781014600F0C4FF5D
:100F7000014601F07FF98BE604F00008F7FF7F3FA0
:100F80000700803F00AAB83F70A5EC36ABAAAA3E86
:100F90003BAAB83F000080BF0072313F1872313F5A
:100FA0008CBEBF354CBB31330EEADD3555B38A38C4
:100FB000610B363BABAA2A3E002CBFF669AE014658
:100FC0004FF07E5001F056F962E6002C00F3888164
:100FD00000205DE6002CFBDA01F1004058E60146F6
:100FE00001F094F854E607B0BDE8F04F00F0BAB94C
:100FF0004146404600F080FF014601F03BF947E6DC
:101000001AF0FF4F40F050814FF0974101F07EF809
:101010006FF0170281464FEAE953B449C9F3160944
:101020007F3B9A188945029249F07E5840F33481FB
:10103000AF4B994540F37A81002301930132059328
:1010400000234FF07E5A0292A8F500080093514603
:10105000404600F051FF51468346404600F04EFFA7
:1010600001464FF07E5001F005F9014604905846C4
:1010700001F04CF84FEA6802009B009042F00052E9
:10108000C14602F5802220F47F681A4428F00F0838
:1010900011464046039201F039F80146584600F0E7
:1010A0002BFF039A83465146104600F025FF014668
:1010B000484600F021FF414601F028F80146584615
:1010C00000F01AFF049B194601F020F883460098AF
:1010D000014601F01BF88749814601F017F886495F
:1010E00000F00CFF494601F011F8844900F006FFBA
:1010F000494601F00BF8824900F000FF494601F033
:1011000005F8804900F0FAFE494600F0FFFF7E49ED
:1011100000F0F4FE49468246484600F0F7FF0146DB
:10112000504600F0F3FF41468146009800F0E6FE8D
:10113000594600F0EBFF494600F0E0FE414682468A
:10114000404600F0E3FF7149039000F0D7FE51469E
:1011500000F0D4FE20F47F6929F00F09494640468B
:1011600000F0D4FF69498046484600F0C5FE039B65
:10117000194600F0C1FE0146504600F0BDFE009940
:1011800000F0C4FF49468246584600F0BFFF0146C2
:10119000504600F0B3FE83460146404600F0AEFEE6
:1011A00020F47F6A2AF00F0A5046594900F0AEFF3A
:1011B00041468146504600F09FFE0146584600F0E9
:1011C0009BFE544900F0A2FF53498046504600F070
:1011D0009DFF0146404600F091FE059900F08EFE0D
:1011E0008046029800F03EFF41468246484600F0A5
:1011F00085FE019900F082FE514600F07FFE20F44A
:101200007F6B2BF00F0B5146584600F075FE01998D
:1012100000F072FE4946B4E5012D7FF439AD00F1CE
:101220000041084634E502F00102C2F102053BE547
:101230003A4B9D4200F384807FF4DDAD414600F0DF
:101240005BFE314601F014F9002879D1ED154FF419
:1012500000037E3D43FA05F52B19C3F3C75230490D
:10126000C3F316097F3A114149F40009C2F117028C
:1012700049FA02F9002C23EA01014046B8BFC9F13E
:10128000000900F039FE01468246304600F036FE85
:101290004FEAC9550446B4E50023019305930023A2
:1012A0004FF07E5A0093D2E60022B4E61D49304644
:1012B00000F024FE41468246484600F01DFE0146ED
:1012C000504601F0DFF80028C0D03846164900F03B
:1012D0001DFF154900F01AFFDAE4002CBFF678AEC6
:1012E0001149084600F012FFD2E400BF71C41C008F
:1012F000D6B35D0042F1533E55326C3E05A38B3EA2
:10130000ABAAAA3EB76DDB3E9A99193F0000404058
:101310000038763F4F38763FA0C39D360000164315
:10132000FFFF7F003CAA3833CAF249710A4B019390
:101330000A4B05934FF400134FF07F5A009386E653
:101340003846074900F0E2FE054900F0DFFE9FE461
:10135000494600F0BDF8CCE500C0153FDCCFD135E3
:101360006042A20D20F00042B2F1FF4FF8B50446F2
:1013700030D272B3002803463FDB14F0FF4F4FEA30
:10138000E0502ED0C3F316037F3843F40002C107A8
:101390004FF000064FEA42034FEA600748BF930050
:1013A000314619244FF080728D189D4202DC5B1B80
:1013B000A9181644013C4FEA43034FEA5202F3D105
:1013C00013B1013626F00106701000F17C5000EBDD
:1013D000C750F8BD014600F099FE214600F08EFD91
:1013E000F8BD14F4000201D00EE00A465B001C02B6
:1013F00002F10101F9D5801AC4E7014600F07CFD35
:10140000014600F037FFF8BD4FF0FF32F3E700BFB1
:1014100020F00040B0F1FF4FACBF0020012070472A
:10142000004870470000C07F30B520F00044E30D55
:101430007F3B162B83B0014623DCFCB1002B024618
:101440004FEAD07426DB20481841014216D04008EC
:10145000014207D04FF4001122EA000241FA03F3DF
:1014600042EA0301194B53F82440204600F046FDA0
:1014700001902146019800F03FFD0146084603B067
:1014800030BDB4F1FF4FF9D300F038FD01460846F6
:1014900003B030BDC0F316030C485B4250F8245033
:1014A0005B0A090D03F4800309051943284600F07F
:1014B00025FD01902946019800F01EFD20F0004115
:1014C00041EAC471DAE700BFFFFF7F0098E9000836
:1014D00010B50C4630F0004103461BD0B1F1FF4F70
:1014E00019D210F0FF4F024619D14FF0984100F089
:1014F0000DFE1E4A944203462ADB0246C0F3C75043
:1015000019382044FE280EDD1949184661F31E00E3
:1015100000F0FCFD10BD014600F0F0FC10BDC80D50
:101520002044FE28F0DC00280DDC10F1160F13DA41
:101530004CF250329442E7DC0E49184661F31E002B
:1015400000F0E4FD10BD22F0FF4242EAC05010BDA1
:10155000084900F0DBFD10BD22F0FF42193042EADD
:10156000C0504FF04C5100F0D1FD10BDB03CFFFF1A
:10157000CAF249716042A20D81F0004102E000BF51
:1015800083F0004330B54FEA41044FEA430594EA43
:10159000050F08BF90EA020F1FBF54EA000C55EA7E
:1015A000020C7FEA645C7FEA655C00F0E2804FEA4F
:1015B0005454D4EB5555B8BF6D420CDD2C4480EA31
:1015C000020281EA030382EA000083EA010180EA61
:1015D000020281EA0303362D88BF30BD11F0004FAF
:1015E0004FEA01314FF4801C4CEA113102D04042E5
:1015F00061EB410113F0004F4FEA03334CEA133320
:1016000002D0524263EB430394EA050F00F0A78037
:10161000A4F10104D5F1200E0DDB02FA0EFC22FA32
:1016200005F2801841F1000103FA0EF2801843FA26
:1016300005F359410EE0A5F120050EF1200E012A17
:1016400003FA0EFC28BF4CF0020C43FA05F3C01855
:1016500051EBE37101F0004507D54FF0000EDCF1CE
:10166000000C7EEB00006EEB0101B1F5801F1BD377
:10167000B1F5001F0CD349085FEA30004FEA3C0C7B
:1016800004F101044FEA445212F5800F80F09A8071
:10169000BCF1004F08BF5FEA500C50F1000041EB75
:1016A000045141EA050130BD5FEA4C0C404141EB79
:1016B0000101013C28BFB1F5801FE9D291F0000F74
:1016C00004BF01460020B1FA81F308BF2033A3F123
:1016D0000B03B3F120020CDA0C3208DD02F1140C1A
:1016E000C2F10C0201FA0CF021FA02F10CE002F155
:1016F0001402D8BFC2F1200C01FA02F120FA0CFC4E
:10170000DCBF41EA0C019040E41AA2BF01EB045196
:10171000294330BD6FEA04041F3C1CDA0C340EDC94
:1017200004F11404C4F1200220FA04F001FA02F3D7
:1017300040EA030021FA04F345EA030130BDC4F195
:101740000C04C4F1200220FA02F001FA04F340EA8A
:101750000300294630BD21FA04F0294630BD94F03B
:10176000000F83F4801306BF81F480110134013D22
:101770004EE77FEA645C18BF7FEA655C29D094EA93
:10178000050F08BF90EA020F05D054EA000C04BF11
:101790001946104630BD91EA030F1EBF00210020FC
:1017A00030BD5FEA545C05D14000494128BF41F09B
:1017B000004130BD14F580043CBF01F5801130BDFF
:1017C00001F0004545F0FE4141F470014FF000008A
:1017D00030BD7FEA645C1ABF194610467FEA655C3B
:1017E0001CBF0B46024650EA013406BF52EA0335DD
:1017F00091EA030F41F4002130BD00BF90F0000FCB
:1018000004BF0021704730B54FF4806404F1320406
:101810004FF000054FF0000150E700BF90F0000FBF
:1018200004BF0021704730B54FF4806404F13204E6
:1018300010F0004548BF40424FF000013EE700BFB6
:1018400042004FEAE2014FEA31014FEA02701FBF46
:1018500012F07F4393F07F4F81F06051704732F078
:101860007F4208BF704793F07F4F04BF41F40021CF
:10187000704730B54FF4607401F0004521F000412D
:101880001CE700BF50EA010208BF704730B54FF0B7
:1018900000050AE050EA010208BF704730B511F0B8
:1018A000004502D5404261EB41014FF4806404F1F0
:1018B00032045FEA915C3FF4D8AE4FF003025FEA76
:1018C000DC0C18BF03325FEADC0C18BF033202EBFA
:1018D000DC02C2F1200300FA03FC20FA02F001FA54
:1018E00003FE40EA0E0021FA02F11444BDE600BFF7
:1018F00070B54FF0FF0C4CF4E06C1CEA11541DBFA6
:101900001CEA135594EA0C0F95EA0C0F00F0DEF870
:101910002C4481EA030621EA4C5123EA4C5350EA55
:10192000013518BF52EA033541F4801143F48013A6
:1019300038D0A0FB02CE4FF00005E1FB02E506F037
:101940000042E0FB03E54FF00006E1FB03569CF08C
:10195000000F18BF4EF0010EA4F1FF04B6F5007F92
:1019600064F5407404D25FEA4E0E6D4146EB060604
:1019700042EAC62141EA55514FEAC52040EA5E508D
:101980004FEACE2EB4F1FD0C88BFBCF5E06F1ED837
:10199000BEF1004F08BF5FEA500E50F1000041EB6E
:1019A000045170BD06F0004646EA010140EA02001B
:1019B00081EA0301B4EB5C04C2BFD4EB0C0541EA3D
:1019C000045170BD41F480114FF0000E013C00F352
:1019D000AB8014F1360FDEBF002001F0004170BD76
:1019E000C4F10004203C35DA0C341BDC04F114048F
:1019F000C4F1200500FA05F320FA04F001FA05F21B
:101A000040EA020001F0004221F0004110EBD370E7
:101A100021FA04F642EB06015EEA430E08BF20EA13
:101A2000D37070BDC4F10C04C4F1200500FA04F3B6
:101A300020FA05F001FA04F240EA020001F0004148
:101A400010EBD37041F100015EEA430E08BF20EABB
:101A5000D37070BDC4F1200500FA05F24EEA020E03
:101A600020FA04F301FA05F243EA020321FA04F032
:101A700001F0004121FA04F220EA020000EBD370E9
:101A80005EEA430E08BF20EAD37070BD94F0000FE9
:101A90000FD101F00046400041EB010111F4801F1D
:101AA00008BF013CF7D041EA060195F0000F18BFCE
:101AB000704703F00046520043EB030313F4801F0A
:101AC00008BF013DF7D043EA0603704794EA0C0FC4
:101AD0000CEA135518BF95EA0C0F0CD050EA4106DA
:101AE00018BF52EA4306D1D181EA030101F0004157
:101AF0004FF0000070BD50EA410606BF104619467F
:101B000052EA430619D094EA0C0F02D150EA01368A
:101B100013D195EA0C0F05D152EA03361CBF1046CB
:101B200019460AD181EA030101F0004141F0FE416A
:101B300041F470014FF0000070BD41F0FE4141F4EE
:101B4000780170BD70B54FF0FF0C4CF4E06C1CEAEE
:101B500011541DBF1CEA135594EA0C0F95EA0C0FA3
:101B600000F0A7F8A4EB050481EA030E52EA03355E
:101B70004FEA013100F088804FEA03334FF080557F
:101B800045EA131343EA12634FEA022245EA1115AC
:101B900045EA10654FEA00260EF000419D4208BF5D
:101BA000964244F1FD0404F5407402D25B084FEA0A
:101BB0003202B61A65EB03055B084FEA32024FF4B6
:101BC00080104FF4002CB6EB020E75EB030E22BF13
:101BD000B61A754640EA0C005B084FEA3202B6EBD3
:101BE000020E75EB030E22BFB61A754640EA5C0082
:101BF0005B084FEA3202B6EB020E75EB030E22BF12
:101C0000B61A754640EA9C005B084FEA3202B6EB12
:101C1000020E75EB030E22BFB61A754640EADC00D1
:101C200055EA060E18D04FEA051545EA16754FEA33
:101C300006164FEAC30343EA52734FEAC2025FEA51
:101C40001C1CC0D111F4801F0BD141EA00014FF0E0
:101C500000004FF0004CB6E711F4801F04BF0143B1
:101C60000020B4F1FD0C88BFBCF5E06F3FF6AFAECD
:101C7000B5EB030C04BFB6EB020C5FEA500C50F15D
:101C8000000041EB045170BD0EF0004E4EEA1131E0
:101C900014EB5C04C2BFD4EB0C0541EA045170BDE7
:101CA00041F480114FF0000E013C90E645EA060E2B
:101CB0008DE60CEA135594EA0C0F08BF95EA0C0F59
:101CC0003FF43BAF94EA0C0F0AD150EA01347FF4A1
:101CD00034AF95EA0C0F7FF425AF104619462CE778
:101CE00095EA0C0F06D152EA03353FF4FDAE1046DB
:101CF000194622E750EA410618BF52EA43067FF42C
:101D0000C5AE50EA41047FF40DAF52EA43057FF4BB
:101D1000EBAE12E74FF0FF3C06E000BF4FF0010CC6
:101D200002E000BF4FF0010C4DF804CD4FEA410C2A
:101D30007FEA6C5C4FEA430C18BF7FEA6C5C1BD0F7
:101D400001B050EA410C0CBF52EA430C91EA030F78
:101D500002BF90EA020F0020704710F1000F91EAD5
:101D6000030F58BF994208BF90422CBFD8176FEAA3
:101D7000E37040F0010070474FEA410C7FEA6C5C71
:101D800002D150EA013C07D14FEA430C7FEA6C5C78
:101D9000D6D152EA033CD3D05DF8040B704700BFA4
:101DA0008446104662468C461946634600E000BFF2
:101DB00001B5FFF7B7FF002848BF10F1000F01BDC4
:101DC0004DF808EDFFF7F4FF0CBF012000205DF88F
:101DD00008FB00BF4DF808EDFFF7EAFF34BF012014
:101DE00000205DF808FB00BF4DF808EDFFF7E0FFAD
:101DF00094BF012000205DF808FB00BF4DF808EDFE
:101E0000FFF7CEFF94BF012000205DF808FB00BF64
:101E10004DF808EDFFF7C4FF34BF012000205DF846
:101E200008FB00BF4FEA410C7FEA6C5C02D150EA2C
:101E3000013C0AD14FEA430C7FEA6C5C02D152EAC2
:101E4000033C02D14FF0000070474FF00100704793
:101E50004FEA4102B2F1E04324BFB3F5001CDCF1CC
:101E6000FE5C0DD901F0004C4FEAC0024CEA507004
:101E7000B2F1004F40EB830008BF20F00100704733
:101E800011F0804F21D113F13872BCBF01F0004036
:101E9000704741F480114FEA5252C2F11802C2F168
:101EA000200C10FA0CF320FA02F018BF40F00100E9
:101EB0004FEAC1234FEAD32303FA0CFC40EA0C009B
:101EC00023FA02F34FEA4303CCE77FEA625307D1D8
:101ED00050EA01331EBF4FF0FE4040F4400070470F
:101EE00001F0004040F0FE4040F40000704700BFA9
:101EF00080F0004002E000BF81F0004142001FBFBF
:101F00005FEA410392EA030F7FEA226C7FEA236CC7
:101F10006AD04FEA1262D2EB1363C1BFD2184140BC
:101F200048404140B8BF5B42192B88BF704710F052
:101F3000004F40F4000020F07F4018BF404211F0F5
:101F4000004F41F4000121F07F4118BF494292EA5D
:101F5000030F3FD0A2F1010241FA03FC10EB0C0089
:101F6000C3F1200301FA03F100F0004302D5494216
:101F700060EB4000B0F5000F13D3B0F1807F06D3C3
:101F800040084FEA310102F10102FE2A51D2B1F1BB
:101F9000004F40EBC25008BF20F0010040EA0300B0
:101FA0007047490040EB0000013A28BFB0F5000F30
:101FB000EDD2B0FA80FCACF1080CB2EB0C0200FAE6
:101FC0000CF0AABF00EBC25052421843BCBFD04035
:101FD0001843704792F0000F81F4000106BF80F4AF
:101FE00000000132013BB5E74FEA41037FEA226C72
:101FF00018BF7FEA236C21D092EA030F04D092F03D
:10200000000F08BF0846704790EA010F1CBF002070
:10201000704712F07F4F04D1400028BF40F00040CD
:10202000704712F100723CBF00F50000704700F0ED
:10203000004343F0FE4040F4000070477FEA226214
:1020400016BF08467FEA23630146420206BF5FEAE5
:10205000412390EA010F40F4800070474FF00003E5
:1020600004E000BF10F0004348BF40425FEA000CAC
:1020700008BF704743F0964301464FF000001CE054
:1020800050EA010208BF70474FF000030AE000BFAA
:1020900050EA010208BF704711F0004302D54042E8
:1020A00061EB41015FEA010C02BF8446014600205A
:1020B00043F0B64308BFA3F18053A3F50003BCFA75
:1020C0008CF2083AA3EBC25310DB01FA02FC634422
:1020D00000FA02FCC2F12002BCF1004F20FA02F229
:1020E00043EB020008BF20F00100704702F120021C
:1020F00001FA02FCC2F1200250EA4C0021FA02F27D
:1021000043EB020008BF20EADC7070474FF0FF0C81
:102110001CEAD0521EBF1CEAD15392EA0C0F93EA7C
:102120000C0F6FD01A4480EA010C400218BF5FEA1E
:1021300041211ED04FF0006343EA501043EA511191
:10214000A0FB01310CF00040B1F5000F3EBF49008B
:1021500041EAD3715B0040EA010062F17F02FD2A8F
:102160001DD8B3F1004F40EBC25008BF20F0010072
:10217000704790F0000F0CF0004C08BF49024CEA89
:10218000502040EA51207F3AC2BFD2F1FF0340EA1B
:10219000C250704740F400004FF00003013A5DDC8C
:1021A00012F1190FDCBF00F000407047C2F10002CD
:1021B000410021FA02F1C2F1200200FA02FC5FEABA
:1021C000310040F1000053EA4C0308BF20EADC7004
:1021D000704792F0000F00F0004C02BF400010F476
:1021E000000F013AF9D040EA0C0093F0000F01F023
:1021F000004C02BF490011F4000F013BF9D041EA45
:102200000C018FE70CEAD15392EA0C0F18BF93EA46
:102210000C0F0AD030F0004C18BF31F0004CD8D170
:1022200080EA010000F00040704790F0000F17BFF7
:1022300090F0004F084691F0000F91F0004F14D03D
:1022400092EA0C0F01D142020FD193EA0C0F03D195
:102250004B0218BF084608D180EA010000F0004098
:1022600040F0FE4040F40000704740F0FE4040F473
:10227000400070474FF0FF0C1CEAD0521EBF1CEA12
:10228000D15392EA0C0F93EA0C0F69D0A2EB030230
:1022900080EA010C49024FEA402037D04FF08053CA
:1022A00043EA111143EA10130CF000408B4238BF8F
:1022B0005B0042F17D024FF4000C8B4224BF5B1A9D
:1022C00040EA0C00B3EB510F24BFA3EB510340EAEB
:1022D0005C00B3EB910F24BFA3EB910340EA9C0099
:1022E000B3EBD10F24BFA3EBD10340EADC001B0109
:1022F00018BF5FEA1C1CE0D1FD2A3FF650AF8B42AD
:1023000040EBC25008BF20F0010070470CF0004CB9
:102310004CEA50207F32C2BFD2F1FF0340EAC250E4
:10232000704740F400004FF00003013A37E792F0A5
:10233000000F00F0004C02BF400010F4000F013A03
:10234000F9D040EA0C0093F0000F01F0004C02BFFE
:10235000490011F4000F013BF9D041EA0C0195E767
:102360000CEAD15392EA0C0F08D142027FF47DAF00
:1023700093EA0C0F7FF470AF084676E793EA0C0FF0
:1023800004D14B023FF44CAF08466EE730F0004CEE
:1023900018BF31F0004CCAD130F000427FF45CAF7E
:1023A00031F000437FF43CAF5FE700BF4FF0FF3CEC
:1023B00006E000BF4FF0010C02E000BF4FF0010C3F
:1023C0004DF804CD4FEA40024FEA41037FEA226C08
:1023D00018BF7FEA236C11D001B052EA530C18BF2A
:1023E00090EA010F58BFB2EB030088BFC81738BF8F
:1023F0006FEAE17018BF40F0010070477FEA226C7D
:1024000002D15FEA402C05D17FEA236CE4D15FEA78
:10241000412CE1D05DF8040B704700BF84460846AC
:102420006146FFE70FB5FFF7C9FF002848BF10F16D
:10243000000F0FBD4DF808EDFFF7F4FF0CBF0120B2
:1024400000205DF808FB00BF4DF808EDFFF7EAFF3C
:1024500034BF012000205DF808FB00BF4DF808EDF7
:10246000FFF7E0FF94BF012000205DF808FB00BFEC
:102470004DF808EDFFF7D2FF94BF012000205DF872
:1024800008FB00BF4DF808EDFFF7C8FF34BF01207F
:1024900000205DF808FB00BF4FEA40024FEA41030D
:1024A0007FEA226C02D15FEA402C08D17FEA236CDC
:1024B00002D15FEA412C02D14FF0000070474FF08B
:1024C000010070474FEA4002B2F1FE4F0FD34FF0C8
:1024D0009E03B3EB12620DD94FEA002343F0004391
:1024E00010F0004F23FA02F018BF404270474FF03F
:1024F0000000704712F1610F01D1420205D110F0C6
:10250000004008BF6FF0004070474FF00000704778
:1025100042000ED2B2F1FE4F0BD34FF09E03B3EB4D
:10252000126209D44FEA002343F0004323FA02F079
:1025300070474FF00000704712F1610F01D1420265
:1025400002D14FF0FF3070474FF00000704700BFDE
:1025500003685A004CBF43F0004323F00043184483
:10256000704700BF2DE9F84329B34F1E04461546B6
:102570003E464FF0000808EB060101EBD17149100F
:1025800004EBC1094846FFF7E3FF0346C8000830E3
:102590008F42204409D0AB4209D8FFF7D9FF013858
:1025A000A8420AD201F10108E5E7AB4205D9884506
:1025B00001D04E1EDFE74FF000094846BDE8F88322
:1025C000012807D0022807D0044B00280CBF18466A
:1025D000002070470248704702487047852C000869
:1025E000892C00088D2C000830B5234B83B004469D
:1025F0008D1E3BB301A92846AFF30080E8B10199D5
:102600002A46FFF7AFFF0146B8B1FFF7A1FF4B68BD
:10261000A064012B2BD0002B01F1040023DBFFF77A
:1026200097FF0023C4E913030368002B10DBFFF7B7
:102630008FFF2061002003B030BD002309202361FB
:1026400003B030BD0D490E48091AC9100191D7E7F2
:10265000C3F30360FFF7B4FF0028206114BF00201C
:10266000092003B030BD0123C4E91303DCE70023D4
:1026700023610520DFE700BF0000000084F50008AB
:10268000ACF300080368DA0710B5044606D49B07CC
:1026900000F1480009D500F04BFC2368590709D523
:1026A0001A070ED5DB0613D510BD00F039FC2368E0
:1026B0005907F5D404F1D00000F042FC23681A0752
:1026C000F0D404F5A87000F043FC2368DB06EBD4DB
:1026D00004F5E870BDE8104000F07EBC03460068D9
:1026E00000B11844704700BF09207047704700BF11
:1026F00070B504460E46316C2046FFF775FF05465F
:1027000088B9336C636132462369214601209847BA
:102710000828F0D0072806D12846316CFFF7E6FFDD
:10272000301D00F0F1FB00F065FE00BF2DE9F04721
:102730000D1D064614460FCDADF5727D0DF10C0C46
:10274000ACE80F000FCDACE80F000FCDACE80F00E8
:1027500095E80F0002ADF768D6F818808CE80F00F6
:1027600000232B6021E02B6C73614FF4F07229463B
:102770007AA800F081FE33697AAA3146504698471C
:10278000889BCDE9005821466B648146334632462A
:102790000120B8470446E8B94FF4F0727AA92846F8
:1027A00000F06AFEB9F1080F1BD1296C3046FFF723
:1027B0001BFF09345FFA84FA81460028D3D0AB6B43
:1027C0004AF01001CDE9005832466B6401203346CF
:1027D000B84708B14FF0090948460DF5727DBDE8CC
:1027E000F087B9F1070FF5D12046296CFFF77EFF7E
:1027F00003A800F089FB00BF406C7047F0B5CB6BBD
:102800000B640E1D0F4605460FCEF9B001AC0FC488
:102810000FCE0FC40FCE0FC496E80F004FF0FF3657
:1028200084E80F00009606E02B696A46294698471F
:102830000828044608D110992846FFF7D5FE00283D
:10284000F2D0092079B0F0BD6846FFF71BFF062CD7
:10285000F7D139462846FFF74BFF00BF30B4DD6B98
:10286000C160826119461D64002230BC5EE700BF72
:1028700070B5C66843690B64AEB903690A4604467D
:102880000D46014602209847072805D008280FD199
:1028900029462046FFF72CFF3046296CFFF726FF1C
:1028A000281D00F031FB0122FFF740FF00F0A2FDE0
:1028B00000F0A0FDC2681AB1CA6B0A64002235E7B5
:1028C0009CE700BF704700BF836801460BB1012041
:1028D00018477047012912D009D873B90F2A0CD8AC
:1028E00000EB820218465368009A13607047033960
:1028F000012994BF0120022070470220704708463A
:10290000704700BF10B584B0002303AC0A460094A2
:102910001946FFF7DFFF039804B010BD012912D05C
:1029200009D873B90F2A0CD800EB8200009A1268FC
:102930004260184670470339012994BF01200220E4
:102940007047022070470846704700BF10B584B03A
:10295000002303AC039200940A461946FFF7DEFFFA
:1029600004B010BDF0B5D36B1364151D8C4606463C
:102970000FCDADF50F7D17AC0FC40FCD0FC40FCD2C
:102980000FC495E80F004FF0FF3784E80F0065464D
:10299000169710E0FFF7DAFF294616A8B04703465E
:1029A00016AA6946082083B9049B9847052804465F
:1029B0000CD0092809D026996846FFF715FE034672
:1029C0006A460C2116A8002BE4D0092416A8FFF7AC
:1029D00059FE20460DF50F7DF0BD00BF2DE9F04FEB
:1029E000CC6C89B00D4654F8041B0694174600F0D1
:1029F00003081E46002B79D00B0CDAB209048DF8BF
:102A00001D30022304EB820405918DF81C302B6DE0
:102A1000B8F1020F08BFAC6B13F001030CD03846BD
:102A200005A900F073FB18B9082009B0BDE8F08FC4
:102A3000092009B0BDE8F08FD4F800A0BAF1000F6A
:102A4000EDD0019300F008030293022E4AD0B4F8AF
:102A500000A0B4F802900434AA6C29F0010B0F21F5
:102A600038469344FFF74EFF834539D82AF00102D8
:102A70005A44824294BF002001204FEA490303F0E8
:102A800002030AF0010A43EA0A03012B49D0022B90
:102A900032D0002BCCD1B8F1000F02D0002840F08A
:102AA000CD800434D4F800A0BAF1000FCDD105A92F
:102AB000384600F02BFB0028BAD1019B002BB3D085
:102AC0000F213846FFF71EFF0E2102463846FFF75A
:102AD0003DFF38466A4A0F21FFF738FF0720A8E775
:102AE0000020CAE7D4F804900834B5E709020323AC
:102AF0000591ADF81C308AE7236823F0004BB8F14C
:102B0000000F45D128B1029A002A5CD0BBF1000F1A
:102B100074D0002B00DA04340BF1010B04EB8B04AE
:102B2000C0E7B8F1000F19D1B0B1D4E90023991C66
:102B30004FEAD2723FF47CAF05F1580101330491A2
:102B400000F09080201DFFF7C9FD04AB0146284628
:102B50000BF0F0FC00285BD10834A3E70D213846C8
:102B6000D5F82090FFF7CEFE8145F5D1AB6A9C42A7
:102B7000F2D12046FFF7ECFC0F2102463846FFF762
:102B8000E5FE38462A460021FFF7E0FE072050E721
:102B90000D213846D5F82090FFF7B4FE814501D0CD
:102BA0002368B6E7AB6A9C42FAD104220021C5E94A
:102BB0000B12A318C5F828B06B6323688B4259DB4E
:102BC00001230193A8E705F15803CDF80C8004F127
:102BD000040AB04691461E460DE00496FFF77EFDBE
:102BE00004AB0146002228460BF0A4FC09F10109C0
:102BF0000AF1040AE8B9D9455046EED138460D210C
:102C0000FFF780FE049B2862C5E90934062010E71F
:102C100081460D213846FFF775FEB9F1020F286293
:102C200025D12B46049A43F82C2F6B62AC62062008
:102C3000FFE646462368DDF80C806AE72046FFF78A
:102C400087FC04340246AC63284614460BF0D0FCE3
:102C500000283FF4EDAE384622460F21FFF776FEFE
:102C60000720E6E638460D21FFF74CFE2862049B5C
:102C70006B62DBE70BF1010004EB80007AE700BF39
:102C800065E600080023A9E60123A7E60223A5E6DE
:102C90002DE9F0430646C3B015461C46042900F250
:102CA000B980DFE801F09A53B7290300002C40F007
:102CB000B180102A00F2AE800368D80600F1F380DC
:102CC00020AF384600F092F9B06B0023012404FADB
:102CD00003F22A42014604D051F8042B47F823207E
:102CE00008460133042BF2D1B063384600F074F982
:102CF000002043B0BDE8F083032C40F08B8094B2F9
:102D000004EB1243102B4FEA124500F28380036854
:102D10001F0700F1D08020AF384600F03BF907EBE9
:102D2000C501B56B54B10B46E81A01EBC401E400D0
:102D30001A5843F8042B8B42FAD125443846B56320
:102D400000F006F9002043B0BDE8F083012C4FEA03
:102D5000124895B25AD0052C5CD108EB0509B9F19F
:102D6000200F57D8B8F10F0F77D9A946002D40F0A2
:102D70008880B36B6DB320AF4FF0000907EBC80735
:102D8000043F03EBC50553F8041B47F8041FAB428F
:102D9000F9D1B9F1000F0FD06F464146102938BF65
:102DA000102107EBC101843903EBC90553F8040B6B
:102DB00041F8040FAB42F9D1012C00F08480B8F146
:102DC0000F0FB56345D9B9F1000F02D0684600F086
:102DD000B7F8002043B0BDE8F083DCB9876B234629
:102DE000012094B206F1040C00FA03F222423946A3
:102DF00004D051F8042B4CF823200F460133102B3C
:102E0000F2D115F40050E4D1B76304E008EB0503F8
:102E1000102B03D9022043B0BDE8F083B8F10F0FA7
:102E2000F8D83368DA0706D5304623F0030340F8B4
:102E3000483B00F079F820AF384600F075F8B36BE6
:102E4000002D99D11D460435B563384600F068F869
:102E5000BFE720A800F06CF8B5E7B9F1100F40D932
:102E6000A9F110093368D90708D523F001033046CA
:102E700043F0020340F8483B00F05EF8B9F1000F60
:102E800032D033685A0720D4B8F10F0F25D96F46D6
:102E90003846C8F1100500F057F8002DB36B7FF7E6
:102EA0007CAF20AF6AE723F01003336006F5E870CB
:102EB00000F09CF804E723F00803036000F5A87015
:102EC00000F068F827E720AFBDE7304623F00403A1
:102ED00040F8D03B00F038F8D6E720A800F02CF8F6
:102EE000D5E74FF00009BDE7B8F10F0F3FF641AF4E
:102EF00020AF384600F020F8B36B002D7FF43CAFD4
:102F0000384600F015F864E700F1340191E8380024
:102F10009C46A6464CF8045D90E8FF0FE54600BDD0
:102F200090EC210B704700BF80EC210B704700BF75
:102F300090EC200B704700BF80EC200B704700BF67
:102F4000D0EC200B704700BFC0EC200B704700BFD7
:102F5000F0EC0201F0EC0211F0EC0221F0EC023195
:102F6000F0EC0241F0EC0251F0EC0261F0EC027185
:102F7000F0EC0281F0EC0291F0EC02A1F0EC02B175
:102F8000F0EC02C1F0EC02D1F0EC02E1F0EC02F165
:102F9000704700BFE0EC0201E0EC0211E0EC02211E
:102FA000E0EC0231E0EC0241E0EC0251E0EC0261C5
:102FB000E0EC0271E0EC0281E0EC0291E0EC02A1B5
:102FC000E0EC02B1E0EC02C1E0EC02D1E0EC02E1A5
:102FD000E0EC02F1704700BFB0FC0181B0FC019150
:102FE000B0FC01A1B0FC01B1704700BFA0FC0181A1
:102FF000A0FC0191A0FC01A1A0FC01B1704700BFA1
:10300000EC4600B52DE900502DE9FF1F4FF00003FD
:103010002DE90C0001A9FFF7F1FBDDF840E012B04B
:10302000704700BFEC4600B52DE900502DE9FF1FA9
:103030004FF000032DE90C0001A9FFF719FCDDF8A2
:1030400040E012B0704700BFEC4600B52DE90050DB
:103050002DE9FF1F4FF000032DE90C0001A9FFF738
:1030600029FCDDF840E012B0704700BFEC4600B527
:103070002DE900502DE9FF1F4FF000032DE90C0052
:1030800001ABFFF7EBFBDDF840E012B0704700BF8B
:10309000EC4600B52DE900502DE9FF1F4FF000036D
:1030A0002DE90C0001AAFFF75DFCDDF840E012B04D
:1030B000704700BF027A7AB9437AA3B14268013BF4
:1030C00010B4437213680321141D01721A02446084
:1030D000026010BC180E70470368013A02721A02AF
:1030E0000260180E7047B020704700BF00B585B071
:1030F00003AA0023009219460C22FFF7EBFB03986A
:1031000005B05DF804FB00BFF0E700BF2DE9F04318
:10311000054685B00E464FF000083046FFF7CAFF5F
:10312000B028044600F0B280070620D500F0F00376
:10313000802B4DD0902B36D0A02B60D0B02B74D0EC
:10314000C02B00F08B8000F0F803D02B0BD100F0E7
:103150000702013242F40022052301212846FFF72D
:1031600097FD0028D9D0092005B0BDE8F0830DF106
:103170000C09002319468700CDF800900D2228463F
:10318000FFF7A8FBFFB2039BCDF800900437600661
:103190004CBFDF1BFF18002319460D22284603975A
:1031A000FFF7BCFBB9E700F00D030D2BDBD003AF3D
:1031B000002300F00F02194600972846FFF78AFB0C
:1031C0000023009719460D222846FFF7A7FBA4E726
:1031D0003046FFF76FFF24022043B0F5004FC2D006
:1031E00004010023A2B219462846FFF751FD00282A
:1031F000B9D114F4004F18BF4FF001088DE7C24356
:1032000002F007034FF47F621A41010702F47F6264
:103210004FF0000348BF42F4804219462846FFF7AA
:1032200037FD00283FF479AF9DE7B12833D0B228AD
:1032300000F08B80B32839D000F0FC03B42B92D07F
:1032400000F007020132012342F400221946284609
:10325000FFF71EFD00283FF460AF84E7C62842D088
:10326000C7284CD000F0F803C02B5BD0C82860D032
:10327000C9287FF478AF3046FFF71CFF020300F047
:103280000F0002F470220130024365E7B8F1000F2D
:1032900018D0002068E73046FFF70CFF02460028F0
:1032A0003FF461AF10F0F003D0D05CE73046FFF799
:1032B00001FF010300F00F0001F47021421C012303
:1032C0000A43C3E703AC43460E2241460094284616
:1032D000FFF700FB0094284643460F224146FFF7C4
:1032E0001DFB404640E73046FFF7E4FE010300F0D7
:1032F0000F0001F47021421C03230A43A6E7304665
:10330000FFF7D8FE024600283FF42DAF10F0F0037F
:103310007FF429AF04212846FFF7BAFC00283FF4C8
:10332000FCAE20E700F00F020132032342F420221A
:103330008CE73046FFF7BEFE00F0F00200F00F030E
:103340001032013343EA023206E700230DF10C0983
:103350000D221946CDF800902846FFF7BBFA3046FB
:10336000FFF7A8FE02064FF002070CD5039B00F002
:103370007F00B840034430460393FFF79BFE0306EB
:1033800007F10707F2D4039BCDF8009000F07F040B
:1033900003F50172BC400023144419460D2228464F
:1033A0000394FFF7BBFAB8E610B5C26C84B053685B
:1033B00003248DF80C401B0202F108040846D27960
:1033C000019301A902948DF80D20FFF79FFE04B030
:1033D00010BD00BF08B5FFF797FE806C08BD00BFA9
:1033E00008B5FFF791FEC06CC379023300EB830090
:1033F00008BD00BF08B5062000F0BCFF01200AF0A0
:1034000021FC00BF014B1868704700BF040000207A
:1034100070B50D4E0D4D761BB61006D0002401344C
:1034200055F8043B9847A642F9D1094E094D761B41
:103430000BF088FAB61006D00024013455F8043B8E
:103440009847A642F9D170BD84F5000884F50008BC
:1034500088F5000884F50008024B0146186800F062
:103460004BB900BF04000020024B0146186800F071
:10347000EDB800BF04000020844641EA000313F0C9
:1034800003036DD1403A41D351F8043B40F8043B6B
:1034900051F8043B40F8043B51F8043B40F8043B2E
:1034A00051F8043B40F8043B51F8043B40F8043B1E
:1034B00051F8043B40F8043B51F8043B40F8043B0E
:1034C00051F8043B40F8043B51F8043B40F8043BFE
:1034D00051F8043B40F8043B51F8043B40F8043BEE
:1034E00051F8043B40F8043B51F8043B40F8043BDE
:1034F00051F8043B40F8043B51F8043B40F8043BCE
:1035000051F8043B40F8043B403ABDD2303211D36D
:1035100051F8043B40F8043B51F8043B40F8043BAD
:1035200051F8043B40F8043B51F8043B40F8043B9D
:10353000103AEDD20C3205D351F8043B40F8043B6D
:10354000043AF9D2043208D0D2071CBF11F8013B6B
:1035500000F8013B01D30B8803806046704700BF31
:10356000082A13D38B078DD010F003038AD0C3F140
:103570000403D21ADB071CBF11F8013B00F8013B22
:1035800080D331F8023B20F8023B7BE7043AD9D3E1
:10359000013A11F8013B00F8013BF9D20B780370B6
:1035A0004B7843708B78837060467047F0B4860721
:1035B00046D0541E002A3CD0CAB2034602E014F1A1
:1035C000FF3436D303F8012B9D07F8D1032C29D9FA
:1035D000CDB245EA05250F2C45EA054533D9A4F1BE
:1035E0001006360903F1200707EB061703F1100256
:1035F00042E9045542E902551032BA42F8D1721C30
:1036000014F00C0F03EB021204F00F0613D0331F5B
:1036100023F003030433134442F8045B9342FBD1C9
:1036200006F003042CB1C9B21C4403F8011B9C42F0
:10363000FBD1F0BC704734461346002CF3D1F8E7B9
:1036400014460346C2E71A462646E0E700293CD066
:1036500038B551F8043C0C1F002BB8BFE4180546E0
:1036600002F07EF9234B1A682AB1A2420DD92168D3
:103670006018824223D0626028461C60BDE8384052
:1036800002F070B9A34203D81A465368002BF9D14F
:1036900011685018A04219D024D8216860188342BC
:1036A00006D0636054602846BDE8384002F05AB93D
:1036B000D3E900030144636021605460F3E7D2E979
:1036C0000002014462602160D6E77047206801442F
:1036D000501883421160E6D1D3E9000301445360DE
:1036E0001160E0E70C232B602846BDE8384002F06B
:1036F00039B900BF64030020F8B5CD1C25F00305DF
:1037000008350C2D38BF0C25002D064633DBA942A9
:1037100031D82A4F02F024F93A6852B113685B1B82
:1037200004D43FE023685B1B29D522465468002C53
:10373000F8D1796800293BD02946304600F082FD57
:10374000431C28D0C41C24F00304A04205D0211A35
:10375000304600F077FD01301DD02560304602F084
:1037600001F904F10B0020F00700231DC21A01D05B
:103770001B1AA350F8BD0C2232600020F8BD0B2BA1
:1037800005D8A242636811D05360E7E7144623606E
:103790001C442560E2E70C233046336002F0E2F877
:1037A0000020F8BD0B2BF1D8536814463B60D5E7D9
:1037B000304600F047FD7860BEE700BF640300209C
:1037C0002DE9F04788B0002BDDE9121A149C109DFA
:1037D0001E46BBBF03F100431E4600232D23662C6B
:1037E00090460B7019D0462C17D024F02003452B9F
:1037F000334636D007A906AF049102210397CDF8CE
:1038000008A00195009101F0BDF8672C074634D15E
:10381000119BDB0733D4079B1CE007A906AF04917B
:103820000321334603974246CDE9015A009101F046
:10383000A9F8074600EB05093B78302B2CD0DAF8C5
:1038400000504D444046314600220023FEF7B8FAAE
:10385000B8B12B46159ADB1B3846136008B0BDE89B
:10386000F08707A906AF0491013502210397CDE93E
:10387000015A009101F086F80746472CC8D03D4414
:10388000E0E7079B9D42E5D930215A1C0792197049
:10389000079BAB42F9D3DDE74046314600220023C7
:1038A000FEF78EFA0028CAD1C5F10105CAF800500A
:1038B000C7E700BFF0B400290446BABF49422D2330
:1038C0002B23092904F8022B82B043702DDD0DF162
:1038D00007063546194F01E01546194687FB0132A8
:1038E000CB17C3EBA20303EB8302A1EB42023032FE
:1038F000632905F8012C05F1FF32EDDC3033A91EF8
:10390000DBB28E4202F8013C0BD9214601E012F8ED
:10391000013B01F8013BB242F9D10DF109035D1BF6
:103920002C44201A02B0F0BC704730313023041D03
:10393000C1708370201A02B0F0BC7047676666667B
:103940002DE9F04F91B00C46DDF868B016461F46E1
:10395000054601F0ADFF03680A93184600F010FF1A
:103960002368099300230E93DBF800300B90073394
:1039700023F00703D3E9008A03F1080142465346C6
:1039800094F81890CBF800102AF0004BC4E91223E9
:10399000404659464FF0FF32B74BFEF743FA48B95D
:1039A000404659464FF0FF32B34BFEF71DFA002850
:1039B00000F089804246404653465146FEF732FAAF
:1039C000002840F04A82099B606843F48061431CF0
:1039D00032D0B9F1670F70D0B9F1470F6DD02160C7
:1039E00042464FF0000C0DF1380E01910DF13408F4
:1039F0000DF133010090CDE902185346CDF8109037
:103A0000CDE905EC2846FFF7DBFE8046B9F1650FEE
:103A10000D9B39D8013B19464A4604F150000D93DD
:103A2000FFF748FF0E9A1318012A8246236140F3DC
:103A30008C810133236139E00620606021604246B9
:103A40004FF0000C0DF1380E01910DF134080DF11D
:103A5000330153460090CDE90218CDF81090CDE91E
:103A600005EC2846FFF7ACFE09F0DF03472B804644
:103A7000CCD10D9BD91C80F2E480A9F102095FFA38
:103A800089F9B9F1650FC5D9B9F1660F00F0E08089
:103A90000E9A9A4240F3E780002BD4BFC3F1020193
:103AA00001210A442261A3654FF0000A9DF83330DA
:103AB00013B32D2384F843301EE0002840F0158115
:103AC00001206060BAE74046514600220023FEF71D
:103AD00081F910B12D2384F843306849684A099B65
:103AE00023F0040323600323B9F1470F94BF8846F2
:103AF000904623614FF0000A009733460FAA2146F3
:103B0000284600F0BDF9013024D0236858052CD494
:103B10002369424631462846B84701301AD0226808
:103B20000F98E36892071AD51A1A002A17DD04F1D4
:103B300019094FF0000804E0E3680F981A1A42458B
:103B40000DDD01234A4631462846B847013008F1C9
:103B50000108F1D14FF0FF3011B0BDE8F08F98426D
:103B6000B8BF184611B0BDE8F08FB9F1650F33D971
:103B700000220023D4E91201FEF722F9002800F008
:103B8000838001233F4A31462846B8470130E1D0BF
:103B9000DDE90D239A4202DB2268D107C0D5DDE9B9
:103BA0000A2331462846B8470130D3D00E9B012B5B
:103BB000B5DD04F11A094FF0000803E00E9B013B4C
:103BC0004345ACDD01234A4631462846B84701301B
:103BD00008F10108F2D1BDE70E9A012A40F3A18055
:103BE0000123424631462846B8470130B2D0DDE9CC
:103BF0000A2331462846B8470130ABD000220023C3
:103C0000D4E91201DDF83890FEF7DAF8002800F068
:103C10009780B9F1010F40F38F8004F11A094FF03A
:103C2000000804E00E9B013B434540F385800123DF
:103C30004A4631462846B847013008F10108F1D11B
:103C400088E7626893423FF718AF4FF067091FE7B4
:103C5000002B62687EDD2361002A00F0AC80013217
:103C60001A4422611FE722682361D2077FF51BAF48
:103C70005A1C226117E700BFFFFFEF7F24F2000804
:103C800028F2000898EC00080D9B002B69DD0E9BC4
:103C9000D4F858A05345A8BF5346002B9B4608DDD7
:103CA000424631462846B84701303FF453AFD4F876
:103CB00058A02BEAEB7BAAEB0B03002B40F3888088
:103CC00004F11A034FF000099A4604E0A36DA3EB38
:103CD0000B024A457BDD0123524631462846B84750
:103CE000013009F10109F1D134E7216042464FF07A
:103CF000000C0DF1380E01910DF134080DF1330176
:103D0000CDE9021853460090CDF81090CDE905ECAE
:103D10002846FFF755FD0D9BD91C8046FFF6ADAE3A
:103D20008FE7D9073FF55CAF42460123314628466D
:103D3000B84701303FF40EAF534604F15002E9E6B4
:103D400009F1FF3308F10102F0E72268D2077FF59D
:103D5000ADAE6EE6002A33D12168C90730D4012206
:103D6000A0E60123434A31462846B84701303FF4D4
:103D7000F1AEDDE90D23134324D0DDE90A233146FA
:103D80002846B84701303FF4E5AE0D9B002B6DDAB5
:103D900004F11A0A4FF0000903E00D9B5B424B450A
:103DA00064DD0123524631462846B847013009F107
:103DB0000109F2D1CEE62168C8077FF574AE4EE75F
:103DC00002326FE62268D3077FF5AAAED5E79A469E
:103DD000DDE90D218A4202DB2368D80709D5DDE938
:103DE0000A2331462846B84701303FF4B3AEDDE937
:103DF0000D215245A1EB0203D4BFA1EB0A0999465C
:103E0000B9F1000F0BDD08EB0A024B46314628469C
:103E1000B84701303FF49EAEDDE90D239B1A29EA35
:103E2000E979A3EB0903002B7FF779AE04F11A0AB5
:103E30004FF0000807E0DDE90D239B1AA3EB09030F
:103E400043457FF76CAE0123524631462846B847BA
:103E5000013008F10108EED17CE6BAF1000FBCBFD9
:103E60002D2384F843300449044A38E642460E9B29
:103E700050E600BF98EC00082CF2000830F2000871
:103E80002DE9F0470C4691460A698968DDF82080E3
:103E90008A42B8BF0A46C9F8002094F84310064683
:103EA0001F4611B10132C9F80020236899065CD57C
:103EB000D9F800200232C9F80020236813F0060F59
:103EC00019461DD1E1688A1A002AD8BF194617DDA4
:103ED00004F1190A002505E0E368D9F800209B1ACF
:103EE000AB420CDD0123524639463046C047013013
:103EF00005F10105F0D14FF0FF30BDE8F0872168F2
:103F000094F84330003318BF01238A060AD5E1181C
:103F10005A1C302081F84300224494F8451082F85E
:103F20004310023304F1430239463046C0470130A2
:103F3000E1D02368A268216903F00603042B1DD099
:103F40008A4226DD4FF00009521A91441A340025A6
:103F500001E04D451DDA0123224639463046C0476F
:103F6000013005F10105F4D1C5E713F0060F13D0B8
:103F700094F84330003318BF0123D3E7D9F8000089
:103F8000E3688A42A3EB000323EAE379DCDC002B3D
:103F9000DCDC0020BDE8F087E168D9F800208A1A4F
:103FA000002AD8BF194693DCAAE700BF2DE9F043E9
:103FB0000C46097E85B06E29064617460C98984631
:103FC00004F1430E6DD039D9732900F0F68044D93D
:103FD000752900F00481782940F011817823226846
:103FE000DFF858C284F845300168150651F8043BE3
:103FF000016040F1A180D10744BF42F0200222605D
:10400000002B00F093801022002184F84310606898
:10401000A0600028C0F2C880216821F0040121605E
:10402000002B40F0A380002840F0C0807546082A8D
:1040300000F0AC80AEEB0503236141E0632900F0A2
:10404000E5801AD8002938D0582940F0D88084F863
:1040500045102268DFF8E8C1C6E76F2900F0BF808D
:10406000702940F0CC802268DFF8D0C142F02002F5
:104070007823226084F84530B6E7642902D06929A4
:1040800040F0BD8022680368110603F1040557D58E
:10409000196805600B46002959DBDFF8A4C10A2224
:1040A000B5E70368226861691D1D056015061B6878
:1040B00002D4500600F1BD801960002375462361CB
:1040C000CDF800803B4603AA21463046FFF7D8FED4
:1040D000013020D02A46236939463046C047013096
:1040E00019D022680398E368920719D51A1A002A92
:1040F00016DD04F11909002504E0E36803981A1A93
:10410000AA420DDD01234A4639463046C0470130F8
:1041100005F10105F1D14FF0FF3005B0BDE8F083A6
:104120009842B8BF184605B0BDE8F083226822F077
:1041300020022260102267E7500648BF9BB25AE770
:104140005106A5D5B3F9003005601946A3E76168AB
:10415000A1602D200029C3F1000384F8430002DB95
:1041600022F004022260DFF8D8C00A22754600E07F
:104170000B46B3FBF2F102FB113093421CF8000036
:1041800005F8010DF4D2082A7FF454AF2368DB0749
:104190007FF550AF626823699A423FF74BAF3023F7
:1041A00005F8013C013D45E7002BDFD19CF80030CC
:1041B00084F8423004F1420539E703686268191D4A
:1041C00001601D680021284601F07AFB002832D0EA
:1041D000401B60602061002384F8433070E7226850
:1041E000036812F0800F03F104051AD01B68056004
:1041F0006F290CBF08220A22DFF844C004E701231C
:1042000084F84210236104F14205E4E703681A6868
:10421000191D0123016004F1420584F84220236145
:10422000D9E712F0400F0DBF1B6805601B880560C1
:10423000DEE7198041E76068CCE700BF48F200087C
:1042400034F2000838B5074C0023054608462360C1
:1042500009F01AFD431C00D038BD2368002BFBD0A9
:104260002B6038BD28A0002010B580210446FFF740
:1042700043FA606440B1031F00227C3043F8042FEE
:104280008342FBD1002010BD4FF0FF3010BD00BFB6
:10429000436C0BB100207047E6E700BF1F2970B5E3
:1042A000054608D8436C16460C464BB153F824001B
:1042B00043F8246070BD162202604FF0FF3070BDDD
:1042C000FFF7D2FF08B96B6CF0E74FF0FF3070BD1D
:1042D0001F2938B521D8426C05460C466AB152F800
:1042E000213053B1012B16D0591C10D00025204687
:1042F00042F824509847284638BD284600F070F808
:10430000224601462846BDE8384000F055B816233D
:104310000360012038BD002038BD162303604FF034
:10432000FF3038BD1F2921D838B5436C05460C46EF
:1043300083B153F8242003EB84034AB1511C10D0FD
:10434000012A0CD0002520461D609047284638BD24
:10435000012038BDFFF788FF28B96B6CE9E703201F
:1043600038BD022038BD4FF0FF3038BD4FF0FF3070
:10437000704700BF024B01461868FFF7A9BF00BF96
:1043800004000020024B0A4601461868FFF786BF6A
:1043900004000020034B1868436C0BB100207047E9
:1043A00062E700BF04000020024B01461868FFF7D7
:1043B000B9BF00BF0400002038B50B46074C0546C6
:1043C000114618460023236009F034FC431C00D03A
:1043D00038BD2368002BFBD02B6038BD28A00020FF
:1043E00009F026BC0CB470B59CB020AC0B4E54F850
:1043F000042B0291234606916FF0004502A9019417
:104400000795CDE9045602F09DF8029B00221A7030
:104410001CB0BDE8704002B0704700BF0802FFFF4B
:104420000EB430B59CB01FAB0C4C0D4D53F8042BA3
:104430000193014602910691206802A96FF00044A1
:104440000794CDE9044502F07DF8029B00221A7022
:104450001CB0BDE8304003B0704700BF040000202E
:104460000802FFFF00000000000000000000000044
:10447000000000000000000000000000000000003C
:10448000A2EB0300704700BF02780B78012A28BF17
:104490009A42F5D16DE9044540EA0104CDE902678D
:1044A0006FF0000C4FEA447212B380EA010414F07A
:1044B000070F6AD100F0070420F0070004F003059D
:1044C00021F007014FEAC505F0E8042314F0040FBA
:1044D000F1E804670CFA05F462EA040266EA0406ED
:1044E0000AD063EA0403624667EA0407664603E00B
:1044F000F0E80423F1E8046782FA4CF582EA060446
:10450000A4FA8CF46CBB83FA4CF583EA0705A5FA90
:104510008CF595B950E9022351E9026782FA4CF50E
:1045200082EA0604A4FA8CF483FA4CF583EA0705C0
:10453000A5FA8CF52543DBD09CB92DBAB5FA85F4E4
:1045400024F0070427FA04F1DDE9026723FA04F3F3
:1045500003F0FF0001F0FF01FDE80445A0EB0100BE
:10456000704724BAB4FA84F424F0070426FA04F15C
:10457000DDE9026722FA04F202F0FF0001F0FF0118
:10458000FDE80445A0EB0100704714F0030F3CD197
:1045900010F0030428D150F8082B51F8083B82FA98
:1045A0004CF582EA0305A5FA8CF55DB950F8042CA8
:1045B00051F8043C82FA4CF582EA0305A5FA8CF521
:1045C000002DE8D02DBAB5FA85F424F0070423FABB
:1045D00004F122FA04F202F0FF0001F0FF01FDE80D
:1045E0000445A0EB010070474FEAC40420F003002B
:1045F00050F8082B21F0030151F8083B0CFA04F4A1
:1046000062EA040263EA0403C9E710F003041AD063
:10461000A1EB040120F00300E40750F8042B06D0BE
:104620000FD28B785FFAA2F4E41A06D12BB1CB78C3
:104630005FFAB2F4E41A00D11BB920465DF8104BC2
:10464000704701F1040150F8042BCC0721F003015D
:1046500051F8043B48D824D222F07F4482FA4CF52A
:1046600094EA1325A5FA8CF50AD165B951F8043BF3
:1046700084EA0204B4EB036F0ED150F8042BEBE78D
:104680004FEA132355E035F07F454DD10878FDE81A
:104690000445C0F1000070474FEA126203F0FF03C7
:1046A00047E002EA1C4482FA4CF594EA1345A5FA65
:1046B0008CF50AD165B951F8043B84EA0204B4EBE5
:1046C000034F0CD150F8042BEBE74FEA134330E0D3
:1046D00015EA1C4528D10B884FEA124229E04FEA1F
:1046E000124203EA1C4324E002F0FF0482FA4CF574
:1046F00094EA1365A5FA8CF50AD165B951F8043B23
:1047000084EA0204B4EB032F09D150F8042BEBE741
:104710004FEA13630DE015F0FF0F05D10B684FEA68
:10472000122223F07F4304E04FF00000FDE804452F
:10473000704712BA1BBA82FA4CF482EA0304A4FA54
:104740008CF5B5FA85F402FA04F203FA04F34FEAA1
:104750001260FDE80445A0EB136070470000000004
:104760000000000000000000000000000000000049
:104770000000000000000000000000000000000039
:1047800090F800F06DE9024520F007016FF0000C91
:1047900010F0070491F820F040F049804FF0000439
:1047A0006FF00700D1E9002391F840F000F1080014
:1047B00082FA4CF2A4FA8CF283FA4CF3A2FA8CF34C
:1047C0004BBBD1E9022382FA4CF200F10800A4FAB3
:1047D0008CF283FA4CF3A2FA8CF3E3B9D1E9042307
:1047E00082FA4CF200F10800A4FA8CF283FA4CF33E
:1047F000A2FA8CF37BB9D1E9062301F1200182FAF8
:104800004CF200F10800A4FA8CF283FA4CF3A2FAFD
:104810008CF3002BC6D0002A04BF04301A4612BA0B
:10482000B2FA82F2FDE8024500EBD2007047D1E90E
:10483000002304F00305C4F100004FEAC50514F09D
:10484000040F91F840F00CFA05F562EA05021CBF6E
:1048500063EA050362464FF00004A9E70000000088
:104860002DE9F04F03690F69BB4283B0C0F2868027
:10487000013F01F1140600F1140A56F827305AF8E6
:104880002720BC000133009406EB04099A425444EB
:10489000B2FBF3F801943AD300252A46B646D44633
:1048A0005EF8044BDCF800301FFA84FB08FB0B5564
:1048B0004FEA154B240C08FB04B4ADB2551BA2B251
:1048C000C2EB134215FA83F302EB23429BB243EA95
:1048D0000243F1454FEA14454CF8043B4FEA2242AB
:1048E000DED2009B5AF803308BB9019A131F9A4508
:1048F0000CD252F8043C4BB9A2F1080302E01A684A
:10490000043B1AB99A4507F1FF37F8D3076104460B
:1049100001F008FB00282DDB08F1010850460023B8
:1049200056F8041B05688AB29A1A0B0C12FA85F223
:10493000C3EB154303EB224392B242EA0342B14573
:1049400040F8042B4FEA2343EAD25AF827200AEB17
:1049500087037AB91A1F92450BD253F8042C42B937
:10496000083B02E01A68043B1AB99A4507F1FF3781
:10497000F8D32761404603B0BDE8F08F002003B0B4
:10498000BDE8F08F2DE9F04F456A97B016461F46F7
:104990000446CDE90267002D00F05C83296849B127
:1049A0006A684A60012393408B6001F01DF8636AD6
:1049B00000221A603E1E239AB4BF01230023136015
:1049C000774BBCBF26F000460396B34300F0B0809F
:1049D000DDE90223CDE90823104619460022002311
:1049E000FDF7EEF9074678B1229A01231360249B64
:1049F000002B00F048836B4B249A1360013B049317
:104A0000049817B0BDE8F08FDDE9088914AA15AB4A
:104A1000CDE90032204642464B4601F0AFFB350D52
:104A2000834640F09B80DDE91485454405F232431E
:104A3000202B40F3F883C3F140039E40029B05F214
:104A4000124023FA00F03043FCF7D8FEA1F1F873CE
:104A500001210246013D0D91104619460022524B9C
:104A6000FCF78EFD48A3D3E90023FCF741FF48A3E0
:104A7000D3E90023FCF786FD064628460F46FCF7DF
:104A8000CDFE45A3D3E90023FCF732FF02460B46D7
:104A900030463946FCF776FD06460F4602F01EFF0B
:104AA00000228246002330463946FDF793F900285C
:104AB00040F0DC82A8EB05056B1EBAF1160F0593DA
:104AC00000F2BD82394B03EBCA03D3E90023DDE9D1
:104AD0000801FDF77FF900286ED000230C93059B99
:104AE000002B0AF1FF3AC0F2B0824FF00009BAF190
:104AF000000F67DACAF100030B93209BCDF818A0D2
:104B0000092BA9EB0A09606A4FF0000A64D8052B4B
:104B100040F38783043B20930025209B023B032B1B
:104B200000F28986DFE813F0A0049D047604900467
:104B3000229A42F20F731360029BC6F313063343AB
:104B400019D1249B002B00F08C86194B0493083359
:104B5000249A0498136017B0BDE8F08FC9F31301CD
:104B600041F07F534246A5F2FF350D9743F44013C1
:104B7000DDF8508070E7249B002B40F039840D4B0A
:104B800004933DE7AFF3008061436F63A787D23F93
:104B9000B3C8608B288AC63FFB799F501344D33F2C
:104BA0000000F07F99EC00080000F83FB8E9000829
:104BB0005CF2000868F20008059B0C90002BC0F224
:104BC00044828146059B606A5344CDE9053A00233F
:104BD0000B93209B092B9AD9002301252093219325
:104BE0004FF0FF330A9507930021079B4160109314
:104BF000204600F0B9FE0490002800F02486636A85
:104C0000049A1A60079B0E2B00F23081002D00F0F1
:104C10002D810699002940F38384A84B01F00F02EF
:104C20000D1103EBC203EA06D3E9006740F14984A2
:104C3000A34BDDE90801D3E90823FCF783FFCDE9A5
:104C40000E01032305F00F050293A5B11194DFF8BF
:104C50007082029CEB0708D530463946D8E900231C
:104C6000FCF746FE013406460F466D1008F10808B1
:104C7000F0D10294119C3B463246DDE90E01FCF76F
:104C800061FF074688460C9B43B100228D4B384696
:104C90004146FDF79FF8002840F048850298FCF750
:104CA000BDFD3A464346FCF723FE874B0022FCF746
:104CB00069FCA1F15073CDE902010393079B002B1E
:104CC00000F0B480069B1193079B0E934146384633
:104CD00002F004FE0546FCF7A1FD02460B463846ED
:104CE0004146FCF74DFC0E9A744B06460F460A9857
:104CF0000499303503EBC2035FFA85F853E90223C8
:104D00004D1C002800F07F8400207049FCF71AFF3A
:104D1000DDE90223FCF734FC049B324683F8008073
:104D20003B46CDE90201FDF773F8002840F0BC8452
:104D300032463B4600206349FCF722FC02460B4604
:104D4000DDE90201FDF764F8002840F066850E9B5E
:104D5000012B00F08780049ACDF838B01344CDE9D8
:104D6000129AA046DDE902AB99460FE032463B4677
:104D700000205449FCF704FC52465B46FDF72AF834
:104D8000002840F019854D4500F01F8550465946D2
:104D900000224F4BFCF7ACFD00224D4B82468B4668
:104DA00030463946FCF7A4FD0F46064602F096FD54
:104DB0000446FCF733FD02460B4630463946FCF705
:104DC000DFFB3034E4B205F8014B52465B46064641
:104DD0000F46FCF7FFFF0028C8D0119BDDF838B064
:104DE0000133444606935946204600F0FDFD00235A
:104DF0002B70229B1A46069B1360249B002B3FF4CA
:104E0000FFAD04981D6017B0BDE8F08F0298FCF765
:104E100005FD3A464346FCF76BFD2B4B0022FCF7A1
:104E2000B1FBA1F15073CDE902010393384641462D
:104E30000022284BFCF7A4FBDDE902783A46434602
:104E400005460E46FCF7E4FF0746002840F0C58300
:104E5000DDE90201024601F1004328463146FCF734
:104E6000B9FF30BBDDE90823CDE90223159B002BF8
:104E7000C0F2C780069A0E2A00F3C3800F4B03EBE3
:104E8000C203D3E9009A219B002B25DA079F002F4C
:104E900022DC40F0818400220E4B48465146FCF74C
:104EA00027FDDDE90223FCF7A9FF002800F0968327
:104EB000079F3E46219B049DDB43F2E2B8E90008D0
:104EC000A8EA00080000F03F00001C400000E03F9E
:104ED0000000244000001440DDE902674A465346C2
:104EE00030463946FCF72EFE02F0F8FC8046FCF70F
:104EF00095FC4A465346FCF7FBFC049D02463046AF
:104F000046460B4630363946FCF73AFB069F05F815
:104F1000016B079E0137012E02460B46069744D0CF
:104F20000022C44BFCF7E4FC0022002306460F4697
:104F3000FCF746FF00287FF456AFCDF808B04FF0DD
:104F40000108DDF81CB005940CE00022B94BFCF719
:104F5000CFFC0022002306460F46FCF731FF002855
:104F600040F033834A46534630463946FCF7EAFD63
:104F700002F0B4FC0446FCF751FC4A465346FCF7E9
:104F8000B7FC02460B4630463946FCF7F9FA08F101
:104F9000010804F13006C34502460B4605F8016BD3
:104FA000D3D1A046DDF808B0059C10461946FCF7A1
:104FB000E9FA4A46534606460F46FCF729FF60B910
:104FC0004A46534630463946FCF7FAFE00283FF47D
:104FD0000AAF5FEAC8717FF506AF15F8018C049A35
:104FE0006B1E04E09A4200F0C88313F8018DB8F1FB
:104FF000390F03F10105F5D008F10102D2B21A70A0
:10500000F1E60A9A002A44D0209A012A40F37B82D2
:10501000079B5F1E0B9BBB42C0F24D82DF1B079BB1
:10502000002BC0F2D682059A114619444D460591CF
:1050300099440121204600F0F3FD06462CE00123AF
:105040000C93059B002BBFF650AD0023C5F1010961
:1050500005934CE51020FEF7FFF96062002800F090
:10506000E183C0E901550560C560A3E45046FCF743
:10507000D5FB32463B46FCF7A3FE00287FF41AAD71
:105080000AF1FF3A16E56C4B0493049817B0BDE89B
:10509000F08F0B9F0A9E4D46002D0BDD059A002ACE
:1050A00008DDAA421346A8BF2B46A9EB0309ED1A57
:1050B000D31A05930B9BD3B10A9B002B00F091816F
:1050C000002F10DD31463A46204600F065FE5A4674
:1050D00001460646204600F0B9FD59468046204666
:1050E00000F082FCC3460B9BDA1B40F07B81012160
:1050F000204600F095FDBAF1000F074600F39E80B0
:10510000209B012B40F37981002308930120BAF101
:10511000000F40F09F80059A104410F01F0079D0D6
:10512000C0F12003042B40F3A083C0F11C00024413
:10513000814405440592B9F1000F05DD59464A4600
:10514000204600F08BFE8346059B002B05DD39468B
:105150001A46204600F082FE07460C9B002B40F0CA
:105160002581079B002B40F30B810A9B002B40F00D
:105170008780069B01330693049DDDF81C904FF059
:10518000010808E0594600230A22204600F052FC9C
:1051900008F10108834639465846FFF761FBC145CF
:1051A00000F1300005F8010BECDC03464FF0000A7B
:1051B000594601222046029300F050FE39468346AC
:1051C00000F0B0FE002815F8012C40F387816B1E1B
:1051D000049904E0994200F08F8113F8012D392AD7
:1051E00003F10105F6D001321A703946204600F06D
:1051F000FBFB002E3FF4F7ADBAF1000F05D0B2452E
:1052000003D05146204600F0EFFB3146204600F027
:10521000EBFBE8E51C20059B034481440544059312
:1052200089E7012579E4C3F12006029B03FA06F021
:105230000AE400BF0000244098EC000801465246F2
:10524000204600F0A9FD209B012B074640F370810A
:10525000002308933B6907EB8303186900F090FC77
:10526000C0F1200057E7314600230A22204600F013
:10527000E1FB109B002B064640F3C282CDE906837A
:10528000002D05DD31462A46204600F0E7FD0646A2
:10529000089B002B40F08281B146029B2098049924
:1052A00003F001020B9202430A92079A4B1E1A4422
:1052B0000892884639465846FFF7D2FA314602909E
:1052C000584600F02FFE4A4682463946204600F0F6
:1052D00045FE029BC26805463033002A42D1014692
:1052E0005846079300F01EFE29460590204600F020
:1052F0007BFB059A079B1AB90A99002900F06C827A
:10530000BAF1000F08F10105C0F22A81209941EAA3
:105310000A0A0B9951EA0A0100F02281002A00F3DF
:105320005F81089A88F80030424500F0668159464E
:1053300000230A22204600F07DFB4E45834631467D
:105340004FF000034FF00A02204613D000F072FB2A
:105350004946064600230A22204600F06BFBA84679
:105360008146A7E701462046059300F03DFB012258
:10537000059BC5E700F05EFBA8460646814699E717
:10538000209B022B76DC0A9B002B7FF479AF3946F9
:105390005846FFF765FA069A049D00F13003013282
:1053A000069205F8013B4FF0000A01E739465846DE
:1053B00000F0B8FD0028BFF6D4AE594600230A22FB
:1053C000204600F037FB069B03F1FF380A9B83461B
:1053D000002B7FF448AF109B002B40F30A82079309
:1053E000CAE60B9A5946204600F0D6FC83467EE674
:1053F000B24B04930333FFF7ABBBDDE90212002984
:105400007FF482AEC2F31303002B00F09C80029B5A
:1054100008937BE601230A93219B002B59DD10930F
:1054200007931E460021172E41607FF7E1AB012252
:1054300004235B0003F11407B742114602F1010295
:10544000F7D94160FFF7D4BB01230A93219B069A49
:10545000134410930133012B1E460793B8BF012656
:10546000E0E700230A93F1E700230A93D4E7109BB7
:10547000CDE90683079B002B7FF41CAD394605223E
:10548000204600F0D7FA01460746584600F04AFD8C
:1054900000287FF70FAD049D069B312205F8012BF4
:1054A0000133013339462046069300F09DFA002E61
:1054B0007FF4ABAE97E40B9B0B97FB1A9A44002743
:1054C000ADE5DDE90223CDE90E2302230293FFF7C8
:1054D000BCBB012321930793FFF786BB03D1029B3B
:1054E000DB073FF574AE6B1E01E013F8012D302A87
:1054F00003F10105F9D078E6069A01320692049A82
:105500003123137071E60D9A002A00F0D28003F265
:105510003343059A0B9F1A444D460592994488E5FA
:1055200040F0D4800223DDE902780293FFF7ABBBA1
:10553000029B002B7FF48CAEDDE90212C2F3130351
:10554000002B40F075815E4B1340002B00F0228150
:10555000059B01330593012309F101090893D5E562
:105560000699002A01F10101069112DD5946012236
:105570002046059300F072FC3946834600F0D2FCC9
:105580000028059B40F31281392B00F0FD80029B1F
:105590003133B24688F800304E4626E67168204620
:1055A00000F0E2F90546002800F054813369023327
:1055B0009A0006F10C010C30FDF75EFF294601222E
:1055C000204600F04BFC814667E6DDF808B0059CFC
:1055D00009E4079BA9EB03052BE500273E465AE7A4
:1055E000069A392B02F10102069200F0CD800133B8
:1055F000B24688F800304E46F7E5069A0132B246C8
:1056000006924E46D4E5DDE90201FCF771F9049BF0
:1056100083F800800E9B012BCDE9020122D00E9B66
:10562000049ACDF83890134499460022254B304611
:105630003946FCF75DF90F46064602F04FF9804601
:10564000FCF7ECF808F1300802460B4630463946C4
:10565000FBF796FF05F8018B4D4506460F46E4D152
:10566000DDF83890184B0022DDE90201FBF78AFFD4
:1056700032463B46FCF7AEFB002840F09180DDE966
:10568000022300201049FBF77BFF32463B46FCF724
:10569000BFFB00283FF4E6AB00E0154615F8013CDF
:1056A000302B05F1FF32F8D0119B01330693FFF741
:1056B0009ABB149BC3F136032BE700BF68F20008C6
:1056C0000000F07F000024400000E03F069B5D42A8
:1056D0006E4B05F00F0203EBC203D3E90023DDE9B3
:1056E0000801FCF705F92D110746884600F0918066
:1056F0000222674ECDE90E780023A0461446EF073C
:1057000005D5D6E90023FCF7F3F8013401236D1029
:1057100006F10806F3D102944446DDE90E78002B29
:105720003FF4B1AA07468846FFF7ADBA079B002BA6
:105730003FF46CAB109D002D7FF794AB0022554BCE
:1057400038464146FCF7D4F80746029888460130AF
:10575000FCF764F83A464346FCF7CAF84E4B002281
:10576000FBF710FFA1F15073CDE902010393069BF3
:105770000E95013B1193FFF7A9BA069A01320692E2
:1057800031221A70FFF72FBB3922B24688F8002069
:105790004E461CE50893B9E400273E46FFF78ABB56
:1057A000119B0133069315F8018C18E47FF4F1AED8
:1057B000DA077FF5EEAEE7E64346A0461C46119BAE
:1057C000DDF838B00133069309E4DDE9129ADDF81B
:1057D00038B04446FFF746BB069A392B02F1010266
:1057E000069208F10105CFD0BAF1000F3FF7CFAE16
:1057F000CFE6209B022B3FF73AAECDF81880C6E5E6
:10580000209B022B3FF733AE109BCDF818800793F7
:1058100036E502230293FFF736BA119B0133069354
:10582000FFF7DDBB02461D4B1D48EA2100F0C4FF17
:10583000029B08930EE5002545602946204600F0AE
:1058400093F80490B0B9174B154800224FF4D57166
:1058500000F0B2FF0246134B114840F2EA2100F07B
:10586000ABFF114B0493FFF7CBB83FF464ACC0F12E
:105870003C00D0E4636A049919604FF0FF320123C1
:105880000792219510920A93FFF7F0BAB8E9000841
:10589000A8EA00080000244000001C406CF2000848
:1058A00084F20008B8F200085CF20008F03070479B
:1058B00000487047580100200048704758010020F8
:1058C00001F0FF01102A2BDB10F0070F08D010F8B1
:1058D000013B013A8B422DD010F0070F42B3F6D1B5
:1058E000F0B441EA012141EA014122F007047FF0CE
:1058F00000070023F0E80256083C85EA010586EA25
:10590000010685FA47F5A3FA87F586FA47F6A5FA60
:1059100087F68EB9EED1F0BC01F0FF0102F007026C
:1059200032B110F8013B013A83EA010313B1F8D117
:105930000020704701387047002D06BF35460338F8
:10594000073815F0010F07D1013015F4807F02BF31
:10595000013015F4C03F0130F0BC0138704700BF82
:10596000704700BF704700BF70B5446A06460D46D9
:105970005CB1E368A3B153F82500E8B1026843F8CD
:1059800025200023C0E9033370BD1020FDF764FD1E
:1059900004467062E8B10023C0E901330360C360CC
:1059A00021220421304600F0E3FC736AE060DB68EA
:1059B000002BE0D1002070BD012101FA05F4621D29
:1059C0003046920000F0D4FC0028F3D0C0E9015426
:1059D000D7E70246024B0348662100F0EDFE00BF08
:1059E0006CF20008CCF2000830B5456A83B004467A
:1059F00055B139B1636A4A68DB6853F82200086020
:105A000043F8221003B030BD10200191FDF724FDB2
:105A10000199606220B1C0E901550560C560E8E701
:105A20000246024B02488A2100F0C6FE6CF20008D2
:105A3000CCF20008F0B50C6983B00D46064601F1C2
:105A4000140C0027DCF8000081B202FB0133190CB2
:105A5000000C02FB00109BB2013703EB0043BC4279
:105A60004CF8043B4FEA1043ECDC3BB1AA68A2427D
:105A700007DD05EB8402013453612C61284603B035
:105A8000F0BD6968019330460131FFF76DFF019B5E
:105A90000746A0B12A6901930232920005F10C0178
:105AA0000C30FDF7E9FC294630463D46FFF79CFFE8
:105AB00005EB8402019B536101342C61DEE7024651
:105AC000024B0348B52100F077FE00BFB8F2000892
:105AD000CCF200082DE9F843264C089E1D460833F9
:105AE00084FB034C092D4FEAE373904607460C46AE
:105AF000C3EB6C0236DD012300215B009A4201F109
:105B00000101FADC3846FFF72FFF68B30123B8F133
